:1000000000EE32F0C40EF66E040EF76E0900F5CF66
:10001000EEFF00EE00F010EE32F031EC00F004EEF6
:1000200000F011EE08F031EC00F005EE20F010EEDB
:1000300008F031EC00F005EE30F010EE03F031EC9A
:1000400000F005EE70F010EE03F031EC00F00FEE72
:1000500070F010EE0FF031EC00F0000EF86E16EFBD
:1000600013F0EE6AE550E150FCE1E250FAE11200D3
:100070000900F5CFEEFFE550E150FAE1E250F8E17A
:0200800012006C
:100400000034034D006900630072006F00630068F0
:100410000069007000200054006500630068006EF1
:10042000006F006C006F0067007900200049006ECB
:100430000063002E002A034D004900430052004F84
:100440000045004D004200450044004500440020A6
:1004500000550053004200200049004F00200009D1
:10046000022900010100C03209040000020300005B
:1004700000092111010001221D0007058103400030
:1004800001070501034000010600FF0901A1011950
:10049000012940150026FF007508954081001901CB
:1004A00029409100C01201000200000008D8044257
:1004B00000020001020001BD040104350404030927
:1004C000045F040001001F0E1F6469EF02F06BEF70
:1004D00002F072EF02F06DA270EF02F072EF02F024
:1004E00074EF02F0B6EF05F022C0E9FF23C0EAFF87
:1004F000EF34E836010B01010C6F01010C510101D1
:100500000101006F0101016B23502210D8A48BEF71
:1005100002F08DEF02F094EF02F0000E01010101F4
:10052000006F000E0101016F010101010151001175
:10053000D8A49DEF02F09FEF02F0B6EF05F07BEF3D
:1005400005F0000E936E000E956E81C481FF82C48B
:1005500083FF81C4C1F482C4C2F401010C6F800E18
:1005600004010401C06F01010C511BC0E9FF1CC054
:10057000EAFFEF34E836010B01010C6F01010C5169
:1005800001010101026F0101036B1C501B10D8A473
:10059000CCEF02F0CEEF02F0D5EF02F0000E010139
:1005A0000101026F000E0101036F010101010351FE
:1005B0000211D8A4DEEF02F0E0EF02F007EF03F043
:1005C00001010C6F400E01010101176F01010C5177
:1005D0000401C00E01010101156F0401040E0101A7
:1005E000166F01010D6F010E01010101146F010170
:1005F0000D5101010E6F010E01010101136F010187
:100600000E51C2EC0DF013C11BF014C11CF08FEFA2
:1006100005F09368956881CFC1F483CFC2F40101DE
:100620000C6F810E04010401C06F01010C511BC04D
:10063000E9FF1CC0EAFFEF34E836010B01010C6F43
:1006400001010C5101010101046F0101056B1C50F6
:100650001B10D8A42EEF03F030EF03F037EF03F0B8
:10066000000E01010101046F000E0101056F01017F
:10067000010105510411D8A440EF03F042EF03F04B
:1006800007EF03F001010C6F400E01010101176F2C
:1006900001010C510401C00E01010101156F04019B
:1006A000040E0101166F01010D6F010E0101010120
:1006B000146F01010D5101010E6F010E01010101C5
:1006C000136F01010E51C2EC0DF013C11BF014C1E8
:1006D0001CF08FEF05F0000E936E956881C481FFCA
:1006E00081C4C1F483CFC2F401010C6F820E0401F6
:1006F0000401C06F01010C511BC0E9FF1CC0EAFFDF
:10070000EF34E836010B01010C6F01010C510101BE
:100710000101066F0101076B1C501B10D8A493EF59
:1007200003F095EF03F09CEF03F0000E01010101CF
:10073000066F000E0101076F01010101075106114B
:10074000D8A4A5EF03F0A7EF03F007EF03F0010132
:100750000C6F400E01010101176F01010C510401E2
:10076000C00E01010101156F0401040E0101166F95
:1007700001010D6F010E01010101146F01010D5105
:1007800001010E6F010E01010101136F01010E51F4
:10079000C2EC0DF013C11BF014C11CF08FEF05F07B
:1007A0009368000E956E82C483FF81CFC1F482C42A
:1007B000C2F401010C6F830E04010401C06F01013A
:1007C0000C511BC0E9FF1CC0EAFFEF34E836010BF7
:1007D00001010C6F01010C5101010101086F0101C0
:1007E000096B1C501B10D8A4F8EF03F0FAEF03F0CC
:1007F00001EF04F0000E01010101086F000E01017C
:10080000096F0101010109510811D8A40AEF04F090
:100810000CEF04F007EF03F001010C6F400E010133
:100820000101176F01010C510401C00E010101010A
:10083000156F0401040E0101166F01010D6F010E09
:1008400001010101146F01010D5101010E6F010E33
:1008500001010101136F01010E51C2EC0DF013C132
:100860001BF014C11CF08FEF05F0010EC26E0101E8
:100870000C6F090EC16E01010C5101010C6F8D0E40
:10088000C06E01010C5193689568C28281CFC1F49A
:1008900083CFC2F44CEF04F0C2CF0CF1020E010181
:1008A0000C1701010C05D8B458EF04F05AEF04F00E
:1008B0004CEF04F071EC10F0C3CFC4F4C4CFC3F418
:1008C000050EC26E01010C6F090EC16E01010C51C3
:1008D00001010C6F8D0EC06E01010C51C28271EFCF
:1008E00004F0C2CF0CF1020E01010C1701010C053E
:1008F000D8B47DEF04F07FEF04F071EF04F071ECF9
:1009000010F0C3CFC6F4C4CFC5F4090EC26E010106
:100910000C6F090EC16E01010C5101010C6F8D0E9F
:10092000C06E01010C51C28296EF04F0C2CF0CF1EF
:10093000020E01010C1701010C05D8B4A2EF04F05E
:10094000A4EF04F096EF04F071EC10F0C3CFC8F4FC
:10095000C4CFC7F40D0EC26E01010C6F090EC16E3B
:1009600001010C5101010C6F8D0EC06E01010C5183
:10097000C282BBEF04F0C2CF0CF1020E01010C17D2
:1009800001010C05D8B4C7EF04F0C9EF04F0BBEFC8
:1009900004F071EC10F0C3CFCAF4C4CFC9F4110E47
:1009A000C26E01010C6F090EC16E01010C510101F3
:1009B0000C6F8D0EC06E01010C51C282E0EF04F08D
:1009C000C2CF0CF1020E01010C1701010C05D8B4C5
:1009D000ECEF04F0EEEF04F0E0EF04F071EC10F057
:1009E000C3CFCCF4C4CFCBF4150EC26E01010C6F93
:1009F000090EC16E01010C5101010C6F8D0EC06E0C
:100A000001010C51C28205EF05F0C2CF0CF1020EBC
:100A100001010C1701010C05D8B411EF05F013EF1B
:100A200005F005EF05F071EC10F0C3CFCEF4C4CFA4
:100A3000CDF404010401CF6904010401D06901016E
:100A40000C6F840E04010401C06F01010C511BC026
:100A5000E9FF1CC0EAFFEF34E836010B01010C6F1F
:100A600001010C51010101010A6F01010B6B1C50C6
:100A70001B10D8A43EEF05F040EF05F047EF05F05E
:100A8000000E010101010A6F000E01010B6F01014F
:100A900001010B510A11D8A450EF05F052EF05F0F7
:100AA00007EF03F001010C6F400E01010101176F08
:100AB00001010C510401C00E01010101156F040177
:100AC000040E0101166F01010D6F010E01010101FC
:100AD000146F01010D5101010E6F010E01010101A1
:100AE000136F01010E51C2EC0DF013C11BF014C1C4
:100AF0001CF08FEF05F0040104018051800A01E130
:100B000020D5010A01E185D5030A01E1E4D5010AF6
:100B100001E146D6070A01E1A8D68FEF05F00101F1
:100B20000C6F400E01010101176F01010C5104010E
:100B3000800E01010101156F0401040E0101166F01
:100B400001010D6F000E01010101146F01010D5132
:100B500001010E6F010E01010101136F01010E5120
:100B6000C2EC0DF013C122F014C123F01200B9EF52
:100B700005F01F66BEEF05F0C0EF05F0EAEF05F0E7
:100B8000000E6D6E0101016F000E696E01010151D1
:100B90000101016F160E6F6E010101510101016F1C
:100BA0009F0E6B6E010101510101016F7B0E696E99
:100BB00001010151DDEF05F06D866DA6E2EF05F054
:100BC000E4EF05F0DCEF05F00101016F010E1F6E8F
:100BD000010101511F04D8A4F0EF05F0F2EF05F078
:100BE00009EF06F06DBAF7EF05F0F9EF05F009EF40
:100BF00006F0000E686E0101016F000E696E0101C2
:100C00000151698069880101016F020E1F6E0101A7
:100C1000015168A40EEF06F010EF06F01AEF06F08F
:100C200069A415EF06F017EF06F01AEF06F06894C6
:100C3000D7EC12F06DA21FEF06F021EF06F024EFC3
:100C400006F0A19A24EF07F068A029EF06F02BEF39
:100C500006F050EF06F069A030EF06F032EF06F034
:100C600050EF06F0FEEC0BF00101016F040E1F6E59
:100C7000010101510501000E04010401026F05018B
:100C8000050E0401036F080E04010401016F000E3C
:100C900004010401006F8C0E04010401001368902C
:100CA00068A855EF06F057EF06F061EF06F069A867
:100CB0005CEF06F05EEF06F061EF06F0FBEC12F081
:100CC000689868AC66EF06F068EF06F087EF06F00C
:100CD00069AC6DEF06F06FEF06F087EF06F0010EDE
:100CE000010101010C6F000E01010D6F000E0101E9
:100CF00001010A6F000E01010B6F730E010101016A
:100D0000086F000E0101096FC8EC10F0689C68AA1A
:100D10008CEF06F08EEF06F097EF06F069AA93EFDE
:100D200006F095EF06F097EF06F08BEC12F068A254
:100D30009CEF06F09EEF06F0BEEF06F069A2A3EF6F
:100D400006F0A5EF06F0BEEF06F0010E010101016D
:100D50000C6F000E01010D6F000E010101010A6F01
:100D6000000E01010B6FFF0E01010101086F7F0EE4
:100D70000101096FC8EC10F0000E6A6E040E1F60CE
:100D8000C4EF06F0C6EF06F0C9EF06F0A19A24EF13
:100D900007F069A6CEEF06F0D0EF06F023EF07F0DC
:100DA0000101016F000E01010101006F01010151FC
:100DB000030E010101010065E0EF06F0E2EF06F02D
:100DC000E4EF06F023EF07F068A6E9EF06F0EBEF9B
:100DD00006F014EF07F06CCF1DF068961D50780BED
:100DE000D8A4F5EF06F0F7EF06F0FBEF06F05DECA8
:100DF0000BF012EF07F0000E010101010C6F000E65
:100E000001010D6F1D0E010101010A6F000E0101AC
:100E10000B6F720E01010101086F000E0101096FD5
:100E2000C8EC10F016EF07F023EF07F00101010105
:100E3000002B030E01010101006521EF07F023EFF4
:100E400007F0E4EF06F0A19A12006D9803BE2BEFB5
:100E500007F02DEF07F086EF07F009AE32EF07F04D
:100E600034EF07F064EF07F00101066F020E266E03
:100E700001010651010E0F24E96E000E1020EA6EEA
:100E8000000EEF6E0FC0E9FF10C0EAFFC80EEF6E54
:100E9000010E1324E96E000E1420EA6E080EEF6EA8
:100EA000020E1324E96E000E1420EA6E0501200ED6
:100EB000EE6E0501050EED6E13C0E9FF14C0EAFFEA
:100EC000C80EEF6E84EF07F0010E1324E96E000EDA
:100ED0001420EA6E080EEF6E020E1324E96E000E67
:100EE0001420EA6E0501000EEE6E0501050EED6E92
:100EF00013C0E9FF14C0EAFF8C0EEF6E0FC0E9FFCC
:100F000010C0EAFF840EEF6E37EF08F009BE8BEFDA
:100F100007F08DEF07F037EF08F00501050100AF8E
:100F200094EF07F096EF07F009EF08F000EE04F0F9
:100F3000050115EE06F0E652EE52ED50E55C02E1D9
:100F4000EF50E75CD8B0A7EF07F0A9EF07F0ADEFDF
:100F500007F006C504F007C505F09BEC0AF0010197
:100F6000066F010E266E01010651010E1324E96E73
:100F7000000E1420EA6E080EEF6E020E1324E96EC6
:100F8000000E1420EA6E0501000EEE6E0501050E3E
:100F9000ED6E13C0E9FF14C0EAFF800EEF6E010191
:100FA000066F000E296E01010651010E1524E96E2F
:100FB000000E1620EA6E080EEF6E020E1524E96E82
:100FC000000E1620EA6E0501000EEE6E0501050EFC
:100FD000ED6E15C0E9FF16C0EAFF840EEF6E010149
:100FE000066F010E296E01010651020E0F24E96EF3
:100FF000000E1020EA6E0501200EEE6E0501050EB2
:10100000ED6E0FC0E9FF10C0EAFFC80EEF6E37EFBC
:1010100008F00101066F020E266E01010651010E55
:101020000F24E96E000E1020EA6E000EEF6E0FC066
:10103000E9FF10C0EAFFC80EEF6E010E1324E96E3F
:10104000000E1420EA6E080EEF6E020E1324E96EF5
:10105000000E1420EA6E0501200EEE6E0501050E4D
:10106000ED6E13C0E9FF14C0EAFFC80EEF6E120068
:10107000050105010205D8A440EF08F042EF08F091
:1010800067EF08F0050100511F0B0009D8A44BEFD2
:1010900008F04DEF08F067EF08F0038E0501050139
:1010A0000151030AD8A457EF08F059EF08F061EF97
:1010B00008F001010B6F010E2A6E01010B5167EF61
:1010C00008F001010B6F000E2A6E01010B510501A2
:1010D000050102676EEF08F070EF08F010EF09F0FD
:1010E000050100511F0B020AD8A479EF08F07BEF2D
:1010F00008F010EF09F0050104510F0B0009D8B4F6
:1011000084EF08F086EF08F010EF09F0038E050178
:10111000050104BF8EEF08F090EF08F0A2EF08F091
:10112000050104510F0B020D170EF324E96EEA6A54
:10113000000EEA220101EECF09F10101EDCF0AF123
:10114000B2EF08F0050104510F0B020D0F0EF3244E
:10115000E96EEA6A000EEA220101EECF09F101010F
:10116000EDCF0AF1050105010151030AD8A4BBEF37
:1011700008F0BDEF08F0C5EF08F009C1E9FF0AC1AA
:10118000EAFF840EEF6E10EF09F0050104510F0B1A
:1011900001010B6F700E01010C6F0F0E0D6F01013D
:1011A0000B5101010C27E86A01010BBFE86801013E
:1011B0000D230CC107F10DC108F107C1E9FF08C1FA
:1011C000EAFFFE0EEE16FF0EED160501050104AF57
:1011D000ECEF08F0EEEF08F000EF09F009C1E9FFCD
:1011E0000AC1EAFF000EEF6E040E01010101091BA6
:1011F00009C1E9FF0AC1EAFF400EEF6E10EF09F0E6
:1012000009C1E9FF0AC1EAFF880EEF6E040E010171
:101210000101091B09C1E9FF0AC1EAFFC80EEF6E0F
:101220001200050100511F0B0101106F0101100593
:10123000D8B41DEF09F01FEF09F021EF09F0D7EF47
:1012400009F0050105010451D8B429EF09F02BEF8D
:1012500009F02DEF09F0D7EF09F005010501015163
:10126000060AD8A436EF09F038EF09F07DEF09F04F
:1012700072EF09F01E04D8A440EF09F042EF09F024
:1012800050EF09F0710E006E040E016E090E046E2F
:10129000000E056E0101106FC00E036E01011051AA
:1012A0007DEF09F01E04D8A458EF09F05AEF09F0B9
:1012B00050EF09F0880E006E040E016E1D0E046ED4
:1012C000000E056E0101106FC00E036E010110517A
:1012D0007DEF09F00101106F800E036E01011051C6
:1012E0007DEF09F0050105010351210AC3E0030A5E
:1012F000D9E0010AEFE07DEF09F005010039E8329D
:10130000030B0101106F01011005D8B48AEF09F039
:101310008CEF09F08EEF09F0D7EF09F0C6EF09F076
:10132000D7EF09F0280E006E000E016E010E046E5C
:10133000000E056E0101106FC10E036E0101105108
:10134000D7EF09F00101106F800E036E01011051FB
:1013500003C528F0D7EF09F0270E006E000E016ECE
:10136000010E046E000E056E0101106F810E036EFA
:1013700001011051D7EF09F00101106F800E036ECB
:101380000101105102C527F0D7EF09F00501050151
:101390000151010AC5E0030AC5E0010ADDE00A0ABD
:1013A000BFE0030ACFE0010AE7E0D7EF09F012003F
:1013B000010E1524E96E000E1620EA6EEF500101B1
:1013C0000101066F0101010106510A5C000E0B5874
:1013D000D8B0EDEF09F0EFEF09F0F3EF09F00AC034
:1013E00006F1FCEF09F00101010106510A5C0A6EE9
:1013F0000B50D8A00B040B6E0101086F000E010109
:101400000101076F010108511BEF0AF00501200ED1
:10141000010101010725E96EEA6A0501050EEA22CC
:1014200006C0E1FF07C0E2FFEFCFE7FF064A072A49
:1014300001010101072B0101010106510101010117
:10144000075DD8A026EF0AF028EF0AF006EF0AF0B1
:101450000B500A10D8B42FEF0AF031EF0AF064EF06
:101460000AF0010E1324E96E000E1420EA6E080E35
:10147000EF6E020E1324E96E000E1420EA6E0501D1
:10148000200EEE6E0501050EED6E15C0E9FF16C0CB
:10149000EAFFEF500101086F010108BD52EF0AF0A9
:1014A00054EF0AF05CEF0AF013C0E9FF14C0EAFF42
:1014B000C80EEF6E62EF0AF013C0E9FF14C0EAFF36
:1014C000880EEF6E9AEF0AF0010E1324E96E000EFB
:1014D0001420EA6E080EEF6E020E1324E96E000E61
:1014E0001420EA6E0501000EEE6E0501050EED6E8C
:1014F00013C0E9FF14C0EAFF840EEF6E00EE0CF09B
:10150000EE50EE10ED10D8B488EF0AF08AEF0AF032
:1015100099EF0AF000EE0CF002D899EF0AF00500FE
:10152000FA6EEE50FD6EEE50FE6EEE50FF6EFA500B
:101530001200099E1200080E045C000E0558D8B077
:10154000A4EF0AF0A6EF0AF0C9EF0AF004C007F111
:1015500005C008F12566AFEF0AF0B1EF0AF0B9EF68
:101560000AF00101096F010E256E01010951C7EF53
:101570000AF02504D8A4BFEF0AF0C1EF0AF0C7EFC4
:101580000AF00101096F020E256E01010951D0EF29
:101590000AF0080E01010101076F000E0101086F3A
:1015A0000FC0E9FF10C0EAFFFD0EEF160FC0E9FF04
:1015B00010C0EAFFFE0EEF160FC0E9FF10C0EAFFF1
:1015C000010101010851EF12010E0F24E96E000E16
:1015D0001020EA6E010107C1EFFF0101010107516F
:1015E000045C046E0101010108510558056E0501F6
:1015F000200E206E0501050E216E03B002EF0BF0E8
:1016000004EF0BF031EF0BF024EF0BF000C0F6FF0E
:1016100001C0F7FFF86A20C0E1FF21C0E2FF030E1E
:10162000F76403D00800F55005D0F6CFE9FFF7CFF7
:10163000EAFFEF50E76E004A012A204A212A010101
:1016400001010707D8A0080701010101085107118E
:10165000D8A42DEF0BF02FEF0BF006EF0BF05CEFA3
:101660000BF051EF0BF000C0F6FF01C0F7FFF86A76
:1016700020C0E1FF21C0E2FF030EF76403D00800A1
:10168000F55005D0F6CFE9FFF7CFEAFFEF50E76E50
:10169000004A012A204A212A010101010707D8A096
:1016A00008070101010108510711D8A45AEF0BF0F6
:1016B0005CEF0BF033EF0BF012001D50FD0BD8A4C4
:1016C00064EF0BF066EF0BF0F1EF0BF01DC003F1D0
:1016D0007E0E010103170101D8900331040D0401AE
:1016E000000EF324156E166A0401040E162215C0AE
:1016F00013F016C014F0040E131A15C0E9FF16C03B
:10170000EAFFEF30E8320F0B0D0AD8A48AEF0BF096
:101710008CEF0BF0EDEF0BF0200E0101036F050EC7
:10172000046F020E1524E96E000E1620EA6E010108
:10173000EE520451ED1803C1E8FFD8B4EF18D8A455
:10174000A4EF0BF0A6EF0BF0E9EF0BF0020E15245F
:10175000E96E000E1620EA6E0501000EEE6E050120
:10176000050EED6E0101036F000E01010101026F14
:1017700001010351070E010101010265C2EF0BF0E7
:10178000C4EF0BF0C6EF0BF0E9EF0BF00501200EF4
:10179000010101010225E96EEA6A0501050EEA224E
:1017A0000501000E010101010225E16EE26A050159
:1017B000050EE222EFCFE7FF01010101022B070E28
:1017C000010101010265E7EF0BF0E9EF0BF0C6EF55
:1017D0000BF017EC11F0EFEF0BF019EC12F0FDEF3E
:1017E0000BF01D50FD0B040AD8A4F9EF0BF0FBEF32
:1017F0000BF0FDEF0BF03AEC0FF01200000E6A6EEA
:10180000000E686E0101036F160E6F6E0101035129
:101810000101036F9F0E6B6E010103510101036F04
:101820007B0E696E010103516D8C0101036F000E87
:101830006E6E01010351000E010101010C6F000EDB
:1018400001010D6F000E010101010A6F000E01017F
:101850000B6F710E01010101086F0F0E0101096F7D
:10186000B3EC12F06D9C0101036F000E0101010148
:10187000026F01010351070E01010101026543EFEF
:101880000CF045EF0CF047EF0CF06AEF0CF00101A3
:1018900001010251040D0401000EF324E96EEA6A0D
:1018A0000401040EEA22000EEE6E000EEE6E000E33
:1018B000EE6E000EED6EED52ED5201010101022BB4
:1018C000070E01010101026568EF0CF06AEF0CF0F0
:1018D00047EF0CF0160E706E6FEF0CF0689668B65E
:1018E00074EF0CF076EF0CF06EEF0CF00101036F6B
:1018F000000E036E010103510101036F000E096E1A
:1019000001010351000E0A6E000E0B6E6D9804016A
:10191000080E0F6E0401040E106E0101036F000E1D
:101920001E6E010103510101036F000E1F6E0101C4
:1019300003511200050105010051800AD8A4A3EF4C
:101940000CF0A5EF0CF033EF0DF00101076FC00EA6
:10195000036E0101075128EF0DF0A50E006E040E75
:10196000016E120E046E000E056E33EF0DF00501D0
:1019700005010251020DC10EF324F66EF76A040E42
:10198000F7220900F5CF00F00A00F5CF01F0020EB2
:1019900000240101076F000E01200101086F07C13B
:1019A000F6FF08C1F7FFF86A030EF76407D00900D5
:1019B000F5CF04F00900F5CF05F008D0F6CFE9FF28
:1019C000F7CFEAFFEECF04F0EECF05F033EF0DF0E6
:1019D000030E050105010261F0EF0CF0F2EF0CF0CF
:1019E00018EF0DF0050105010251020DB70EF324A9
:1019F000F66EF76A040EF7220900F5CF00F00A0030
:101A0000F5CF01F00050F66EE96E030EEA6E01505C
:101A1000EA6403D0EA6EEF5003D0F76E0800F55089
:101A20000101076F01010751046E056A1EEF0DF0F9
:101A30000101076F000E036E0101075133EF0DF036
:101A40000101076F000E036E0101075133EF0DF026
:101A5000050105010351010A80E0030A88E0010A3B
:101A6000B7E020EF0DF0120005010039E832030B5A
:101A70000009D8B43EEF0DF040EF0DF042EF0DF04D
:101A8000C1EF0DF0A6EF0DF0038E0101066F080EF9
:101A90001F6E01010651C1EF0DF09AEC0CF0C1EF81
:101AA0000DF013EC10F0C1EF0DF01E0E006E000EE5
:101AB000016E03800101066F010E046E01010651E3
:101AC000038EC1EF0DF042EC0EF0C1EF0DF038ECDB
:101AD00008F0C1EF0DF0240E050105010425006E8C
:101AE000016A000E012203800101066F010E046EDF
:101AF00001010651038EC1EF0DF0038E240E050186
:101B000005010425E96EEA6A000EEA22050102C514
:101B1000EFFFC1EF0DF0000E010101010C6F000E8F
:101B200001010D6F000E010101010A6F000E01019C
:101B30000B6F020E01010101086F000E0101096F18
:101B4000C8EC10F0C1EF0DF0C1EF0DF0050105017B
:101B50000151000AB8E0010ABAE0020AB8E0060A38
:101B600093E0030A9AE0010AD6E00F0A9EE0010A18
:101B700098E0030AB0E0010AC0E0070AE5E0A4EF3C
:101B80000DF01200010101011451D8B4CAEF0DF09B
:101B9000CCEF0DF0DEEF0DF0010101011351020D4C
:101BA0000F0EF324E96EEA6A000EEA220101EECF7D
:101BB00018F10101EDCF19F1EEEF0DF00101010176
:101BC0001351020D170EF324E96EEA6A000EEA22A1
:101BD0000101EECF18F10101EDCF19F1020E010163
:101BE00001011825E96E000E010101011921EA6EBB
:101BF000010115C1EEFF010116C1EDFF010E01014A
:101C000001011825E96E000E010101011921EA6E9A
:101C1000010117C1EFFF18C1E9FF19C1EAFF400E2A
:101C2000EF1618C1E9FF19C1EAFF880EEF12010192
:101C300001011451D8B41FEF0EF021EF0EF02FEF79
:101C40000EF0010101011351020D0F0EF324E96E94
:101C5000EA6A000EEA22040EEF1A3BEF0EF00101D1
:101C600001011351020D170EF324E96EEA6A000E0A
:101C7000EA22040EEF1A18C113F119C114F141EF51
:101C80000EF01200000E05010501206F000E050187
:101C90000501216FA1EF0EF0038E050105012081E2
:101CA0002A04D8A456EF0EF058EF0EF05BEF0EF0BA
:101CB000050105012083ACEF0EF0038EACEF0EF0B2
:101CC000038E0501050104BF68EF0EF06AEF0EF008
:101CD0007CEF0EF0050104510F0B020D170EF324DB
:101CE000E96EEA6A000EEA220101EECF07F1010176
:101CF000EDCF08F18CEF0EF0050104510F0B020D32
:101D00000F0EF324E96EEA6A000EEA220101EECF1B
:101D100007F10101EDCF08F107C1E9FF08C1EAFFB2
:101D2000EF500101096F010109A599EF0EF09BEF3A
:101D30000EF05BEF0EF0010E05010501206FACEF18
:101D40000EF0050100511F0B000AA6E0010AB5E0E4
:101D5000030AB6E0ACEF0EF003AEB1EF0EF0B3EF56
:101D60000EF0C0EF0EF00501200E006E0501050E0D
:101D7000016E03800101096F020E046E0101095119
:101D800012000401000E010101011C6F0401040E88
:101D900001011D6F010101011A51020DF3CF1EF166
:101DA000010101011951040DF35001011E2501012A
:101DB0001F6F0101D8901F370101D8901F35010115
:101DC00001011B6F010101011B41E8423F0B0101B1
:101DD00001011B6F010101011B51040DF3500101B1
:101DE00001011C27000E010101011D231CC1E9FF97
:101DF0001DC1EAFF7F0EEF16010101011A6703EF13
:101E00000FF005EF0FF017EF0FF00101010119516D
:101E1000020D170EF324E96EEA6A000EEA220101B0
:101E20001CC1EEFF01011DC1EDFF27EF0FF0010105
:101E300001011951020D0F0EF324E96EEA6A000E3A
:101E4000EA2201011CC1EEFF01011DC1EDFF1CC111
:101E5000E9FF1DC1EAFFBF0EEF16040E01010101EB
:101E60001C25E96E000E010101011D21EA6E400EE4
:101E7000EF1212000FC0E9FF10C0EAFFEF38E8329E
:101E8000E832010B01010101056F040E0F1A1F500A
:101E9000080AD8A44EEF0FF050EF0FF068EF0FF0E4
:101EA00002C56EFF6E50D8B458EF0FF05AEF0FF026
:101EB00062EF0FF00101066F100E1F6E0101065157
:101EC00068EF0FF00101066F040E1F6E010106514D
:101ED0002604D8A46EEF0FF070EF0FF0A8EF0FF00C
:101EE000020E0F24E96E000E1020EA6E0501200E8E
:101EF000EE6E0501050EED6E9BEC0AF02550020A10
:101F0000D8A485EF0FF087EF0FF08FEF0FF00FC021
:101F1000E9FF10C0EAFF840EEF6EA6EF0FF001019B
:101F20000101056796EF0FF098EF0FF0A0EF0FF0AB
:101F30000FC0E9FF10C0EAFFC80EEF6EA6EF0FF06A
:101F40000FC0E9FF10C0EAFF880EEF6EAAEF0FF096
:101F5000A1EC11F01200000E01010101256F000E2D
:101F60000101266F0101010123512211D8B4BBEFF9
:101F70000FF0BDEF0FF00CEF10F00101276F010E15
:101F800001010101246F01012751D0EF0FF0010180
:101F9000D890010122370101233701010101242BCF
:101FA0000101010123AFD7EF0FF0D9EF0FF0C7EF19
:101FB0000FF00101D89001012537010126370101F9
:101FC0000101225101010101205D010101012351A3
:101FD000010101012159D8A0F0EF0FF0F2EF0FF04D
:101FE00001EF10F001010101225101010101205F07
:101FF00001010101235101010101215B01010101E5
:1020000025810101D890010123330101223301010F
:102010000101242FD9EF0FF025C120F126C121F1B4
:1020200012EF10F01200038E000E010101010C6F7F
:10203000000E01010D6F000E010101010A6F000E7B
:1020400001010B6F710E01010101086F0F0E0101FB
:10205000096FB3EC12F0010E010101010C6F000ECB
:1020600001010D6F000E010101010A6F000E010157
:102070000B6F240E01010101086F000E0101096FB1
:10208000B3EC12F002C51EF01E6649EF10F04BEFE4
:1020900010F053EF10F00101076F100E1F6E0101D9
:1020A000075170EF10F00101076F200E1F6E010144
:1020B0000751010E010101010C6F000E01010D6FAE
:1020C0001E0E010101010A6F000E01010B6F010ECE
:1020D00001010101086F000E0101096FC8EC10F049
:1020E0001200000E010101010F6F000E0101106FBF
:1020F000010101011051800A7F0F2D0ED8B40F5D30
:10210000D8A085EF10F087EF10F089EF10F0C7EF3F
:1021100010F0000E01010101116F000E0101126F9C
:10212000010101011251800A800F330ED8B4115DF4
:10213000D8A09DEF10F09FEF10F0A1EF10F0B4EFDA
:1021400010F001010101114B122B0101010112518B
:10215000800A800F330ED8B4115DD8A0B2EF10F012
:10216000B4EF10F0A1EF10F0010101010F4B102BA3
:10217000010101011051800A7F0F2D0ED8B40F5DAF
:10218000D8A0C5EF10F0C7EF10F089EF10F01200E3
:10219000EBEF10F0DFEC11F014EF11F027EC13F07F
:1021A00014EF11F020EC13F014EF11F026EC13F003
:1021B00014EF11F025EC13F014EF11F023EC13F0F1
:1021C00014EF11F024EC13F014EF11F000F014EF01
:1021D00011F014EF11F0010108C10EF1010109C164
:1021E0000FF101010CEF11F001010E51010AD2E0D3
:1021F000030AD4E0010AD6E0710AE8E0010AD6E059
:10220000070ADCE0010AD6E0E9EF10F001010E5107
:10221000FF0AD8E0E9EF10F001010F51000AE4E0F5
:102220007F0AF4E0E9EF10F016EF11F012000FC092
:10223000E9FF10C0EAFFEF500101056F010105AF92
:1022400024EF11F026EF11F02CEF11F00FC0E9FF91
:1022500010C0EAFF000EEF6E0101056F000E256E43
:10226000010105510101056F000E266E01010551A6
:10227000000E046E000E056E0101056F000E036E68
:102280000101055134EC0DF0000E010101010C6F4C
:10229000000E01010D6F000E010101010A6F000E19
:1022A00001010B6F030E01010101086F000E010116
:1022B000096FC8EC10F025EC07F01200700E010158
:1022C000176F0F0E186F010101011351010117273C
:1022D000000E0101182317C115F118C116F115C11F
:1022E000E9FF16C1EAFF010114C1EFFF010101017D
:1022F00014A57DEF11F07FEF11F08BEF11F00101CC
:10230000176F000E010101011A6F0101175113C16E
:1023100019F1C1EC0EF00101010114A392EF11F0CB
:1023200094EF11F0A0EF11F00101176F010E010100
:1023300001011A6F0101175113C119F1C1EC0EF01F
:1023400012000101096F000E266E010109510FC034
:10235000E9FF10C0EAFF000EEF6E040E0F18010136
:102360000101076F10500101086F07C1E9FF08C1A3
:10237000EAFF000EEF6E09AEC0EF11F0C2EF11F0F0
:10238000DEEF11F000EE0CF0EE50EE10ED10D8B4D0
:10239000CCEF11F0CEEF11F0DDEF11F000EE0CF00C
:1023A00002D8DDEF11F00500FA6EEE50FD6EEE5032
:1023B000FE6EEE50FF6EFA501200099E12000101EF
:1023C000106F1E0E01010101146F01011051010176
:1023D000116F010E01010101136F010111515EEC3A
:1023E00011F00101106F400E01010101176F010191
:1023F00010510401800E01010101156F0401040E4A
:102400000101166F0101116F000E01010101146F2E
:10241000010111510101126F010E01010101136F40
:1024200001011251C2EC0DF013C122F014C123F0CE
:1024300012002650020AD8A420EF12F022EF12F068
:1024400026EF12F0D8EC09F051EF12F0A1EC11F0E8
:1024500029662DEF12F02FEF12F04BEF12F0010E64
:102460001324E96E000E1420EA6E080EEF6E020EC1
:102470001324E96E000E1420EA6E0501000EEE6EC4
:102480000501050EED6E13C0E9FF14C0EAFF8C0EC6
:10249000EF6E51EF12F00101056F000E296E010180
:1024A000055112000101006F0F0EC16E01010051B4
:1024B0009268000E936E000E946E000E956E010EE3
:1024C000966E000E816E000E826E000E836E000E00
:1024D000846E010EC26E0101006F090EC16E010112
:1024E00000510101006F900EC06E01010051825039
:1024F0000109826E000E226E000E236E000E1B6E0E
:10250000000E1C6E0101006F010E326E01010051C0
:10251000FEEC0BF0120070A090EF12F092EF12F0B0
:10252000B1EF12F0800E15C0E9FF16C0EAFFEF62AE
:102530009CEF12F09EEF12F0B0EF12F0840E0FC07D
:10254000E9FF10C0EAFFEF62A8EF12F0AAEF12F065
:10255000B0EF12F015C0E9FF16C0EAFF8C0EEF6E67
:102560007090689A120008C10EF109C10FF1C4EF12
:1025700012F00EC1E9FF0FC1EAFF01010AC1EFFF2E
:10258000010101010E4B0F2B010101010C07D8A025
:102590000D0701010C29D8B40D29D8A4D2EF12F0EF
:1025A000D4EF12F0B9EF12F0D6EF12F01200000ED5
:1025B000010101010C6F000E01010D6F000E010100
:1025C00001010A6F000E01010B6F740E0101010180
:1025D000086F000E0101096FC8EC10F06D9269944C
:1025E000F3EF12F0689468B4F8EF12F0FAEF12F01B
:1025F000F2EF12F01200698468986D82000E0101FA
:1026000001010C6F000E01010D6F000E01010101AF
:102610000A6F000E01010B6F750E01010101086FB9
:10262000000E0101096FC8EC10F0120052EC12F01C
:10263000B7EC05F063EC02F018EF13F000EF00F0D8
:1026400011EC09F012001200120012001200120028
:020000040030CA
:0E000000E43EFFFEFFF19BFFFFFFFFFFFFFF4F
:00000001FF
